{
  "_format": "hh-sol-artifact-1",
  "contractName": "Exchange",
  "sourceName": "contracts/Exchange.sol",
  "abi": [
    {
      "inputs": [
        {
          "internalType": "uint256",
          "name": "_rate",
          "type": "uint256"
        },
        {
          "internalType": "address",
          "name": "_cfo",
          "type": "address"
        },
        {
          "internalType": "contract IERC20",
          "name": "_token",
          "type": "address"
        }
      ],
      "stateMutability": "nonpayable",
      "type": "constructor"
    },
    {
      "anonymous": false,
      "inputs": [
        {
          "indexed": true,
          "internalType": "address",
          "name": "who",
          "type": "address"
        },
        {
          "indexed": false,
          "internalType": "uint256",
          "name": "ethAmount",
          "type": "uint256"
        },
        {
          "indexed": false,
          "internalType": "uint256",
          "name": "tokenAmount",
          "type": "uint256"
        }
      ],
      "name": "Exchanged",
      "type": "event"
    },
    {
      "anonymous": false,
      "inputs": [
        {
          "indexed": true,
          "internalType": "address",
          "name": "previousOwner",
          "type": "address"
        },
        {
          "indexed": true,
          "internalType": "address",
          "name": "newOwner",
          "type": "address"
        }
      ],
      "name": "OwnershipTransferred",
      "type": "event"
    },
    {
      "inputs": [],
      "name": "cfo",
      "outputs": [
        {
          "internalType": "address",
          "name": "",
          "type": "address"
        }
      ],
      "stateMutability": "view",
      "type": "function"
    },
    {
      "inputs": [],
      "name": "exchange",
      "outputs": [],
      "stateMutability": "payable",
      "type": "function"
    },
    {
      "inputs": [],
      "name": "max",
      "outputs": [
        {
          "internalType": "uint256",
          "name": "",
          "type": "uint256"
        }
      ],
      "stateMutability": "view",
      "type": "function"
    },
    {
      "inputs": [],
      "name": "owner",
      "outputs": [
        {
          "internalType": "address",
          "name": "",
          "type": "address"
        }
      ],
      "stateMutability": "view",
      "type": "function"
    },
    {
      "inputs": [],
      "name": "rate",
      "outputs": [
        {
          "internalType": "uint256",
          "name": "",
          "type": "uint256"
        }
      ],
      "stateMutability": "view",
      "type": "function"
    },
    {
      "inputs": [],
      "name": "renounceOwnership",
      "outputs": [],
      "stateMutability": "nonpayable",
      "type": "function"
    },
    {
      "inputs": [
        {
          "internalType": "address",
          "name": "_cfo",
          "type": "address"
        }
      ],
      "name": "setCfo",
      "outputs": [],
      "stateMutability": "nonpayable",
      "type": "function"
    },
    {
      "inputs": [
        {
          "internalType": "uint256",
          "name": "_max",
          "type": "uint256"
        }
      ],
      "name": "setMax",
      "outputs": [],
      "stateMutability": "nonpayable",
      "type": "function"
    },
    {
      "inputs": [
        {
          "internalType": "uint256",
          "name": "_rate",
          "type": "uint256"
        }
      ],
      "name": "setRate",
      "outputs": [],
      "stateMutability": "nonpayable",
      "type": "function"
    },
    {
      "inputs": [],
      "name": "token",
      "outputs": [
        {
          "internalType": "contract IERC20",
          "name": "",
          "type": "address"
        }
      ],
      "stateMutability": "view",
      "type": "function"
    },
    {
      "inputs": [
        {
          "internalType": "address",
          "name": "newOwner",
          "type": "address"
        }
      ],
      "name": "transferOwnership",
      "outputs": [],
      "stateMutability": "nonpayable",
      "type": "function"
    }
  ],
  "bytecode": "0x608060405234801561001057600080fd5b5060405161081538038061081583398101604081905261002f916100cb565b600160005561003d33610079565b6002929092556000600355600680546001600160a01b039283166001600160a01b03199182161790915560048054929093169116179055610125565b600180546001600160a01b038381166001600160a01b0319831681179093556040519116919082907f8be0079c531659141344cd1fd0a4f28419497f9722a3daafe3b4186f6b6457e090600090a35050565b6000806000606084860312156100df578283fd5b8351925060208401516100f18161010d565b60408501519092506101028161010d565b809150509250925092565b6001600160a01b038116811461012257600080fd5b50565b6106e1806101346000396000f3fe60806040526004361061009c5760003560e01c80636ac5db19116100645780636ac5db1914610164578063715018a61461017a5780638da5cb5b1461018f578063d2f7265a146101ad578063f2fde38b146101b5578063fc0c546a146101d557600080fd5b80631ed20347146100a15780631fe9eabc146100de5780632c4e722e146101005780632d46ed561461012457806334fcf43714610144575b600080fd5b3480156100ad57600080fd5b506006546100c1906001600160a01b031681565b6040516001600160a01b0390911681526020015b60405180910390f35b3480156100ea57600080fd5b506100fe6100f9366004610611565b6101f5565b005b34801561010c57600080fd5b5061011660025481565b6040519081526020016100d5565b34801561013057600080fd5b506100fe61013f3660046105c3565b61022d565b34801561015057600080fd5b506100fe61015f366004610611565b610279565b34801561017057600080fd5b5061011660035481565b34801561018657600080fd5b506100fe6102a8565b34801561019b57600080fd5b506001546001600160a01b03166100c1565b6100fe6102de565b3480156101c157600080fd5b506100fe6101d03660046105c3565b6104d6565b3480156101e157600080fd5b506004546100c1906001600160a01b031681565b6001546001600160a01b031633146102285760405162461bcd60e51b815260040161021f90610629565b60405180910390fd5b600355565b6001546001600160a01b031633146102575760405162461bcd60e51b815260040161021f90610629565b600680546001600160a01b0319166001600160a01b0392909216919091179055565b6001546001600160a01b031633146102a35760405162461bcd60e51b815260040161021f90610629565b600255565b6001546001600160a01b031633146102d25760405162461bcd60e51b815260040161021f90610629565b6102dc6000610571565b565b600260005414156103315760405162461bcd60e51b815260206004820152601f60248201527f5265656e7472616e637947756172643a207265656e7472616e742063616c6c00604482015260640161021f565b60026000553461034057600080fd5b60025433906000906103529034610676565b6003549091501561038f576001600160a01b038216600090815260056020526040902054600354610383828461065e565b1061038d57600080fd5b505b600480546006546040516323b872dd60e01b81526001600160a01b039182169381019390935284811660248401526044830184905216906323b872dd90606401602060405180830381600087803b1580156103e957600080fd5b505af11580156103fd573d6000803e3d6000fd5b505050506040513d601f19601f8201168201806040525081019061042191906105f1565b506006546040516001600160a01b03909116903480156108fc02916000818181858888f1935050505015801561045b573d6000803e3d6000fd5b506001600160a01b0382166000908152600560205260408120805483929061048490849061065e565b909155505060408051348152602081018390526001600160a01b038416917f98e5a745dfe4f0a8952c2d09eeb25746ce9768004ab459c980d7ad1b5152cbd8910160405180910390a250506001600055565b6001546001600160a01b031633146105005760405162461bcd60e51b815260040161021f90610629565b6001600160a01b0381166105655760405162461bcd60e51b815260206004820152602660248201527f4f776e61626c653a206e6577206f776e657220697320746865207a65726f206160448201526564647265737360d01b606482015260840161021f565b61056e81610571565b50565b600180546001600160a01b038381166001600160a01b0319831681179093556040519116919082907f8be0079c531659141344cd1fd0a4f28419497f9722a3daafe3b4186f6b6457e090600090a35050565b6000602082840312156105d4578081fd5b81356001600160a01b03811681146105ea578182fd5b9392505050565b600060208284031215610602578081fd5b815180151581146105ea578182fd5b600060208284031215610622578081fd5b5035919050565b6020808252818101527f4f776e61626c653a2063616c6c6572206973206e6f7420746865206f776e6572604082015260600190565b6000821982111561067157610671610695565b500190565b600081600019048311821515161561069057610690610695565b500290565b634e487b7160e01b600052601160045260246000fdfea2646970667358221220f81b20b953161e252196cad8b20fd6bd1f113eeb6e1117afb9cc4e6bff1ff11064736f6c63430008040033",
  "linkReferences": {},
  "deployedLinkReferences": {}
}